:020000041000EA
:1000000000B5324B212058609868022188439860DF
:10001000D860186158612E4B002199600221596106
:100020000121F02299502B49196001219960352056
:1000300000F044F80222904214D00621196600F024
:1000400034F8196E01211966002018661A6600F04E
:100050002CF8196E196E196E052000F02FF8012189
:100060000842F9D1002199601B49196000215960AB
:100070001A491B48016001219960EB211966A021F2
:10008000196600F012F800219960164914480160C1
:100090000121996001BC002800D000471248134993
:1000A000086003C880F30888084703B5996A0420EC
:1000B0000142FBD001200142F8D103BD02B5186610
:1000C0001866FFF7F2FF186E186E02BD00000240BE
:1000D000000000180000070000035F00212200005C
:1000E000F4000018222000A00001001008ED00E03C
:1000F00000000000000000000000000074B24E7A12
:1001000000200420F7010010C3010010C5010010F9
:10011000C1010010C1010010C1010010C101001097
:10012000C1010010C1010010C1010010C701001081
:10013000C1010010C1010010C9010010CB01001065
:10014000CD010010CD010010CD010010CD01001037
:10015000CD010010CD010010CD010010CD01001027
:10016000CD010010CD010010CD010010CD01001017
:10017000CD010010CD010010CD010010CD01001007
:10018000CD010010CD010010CD010010CD010010F7
:10019000CD010010CD010010CD010010CD010010E7
:1001A000CD010010CD010010CD010010CD010010D7
:1001B000CD010010CD010010CD010010CD010010C7
:1001C00000BE00BE00BE00BE00BE00BEEFF3058054
:1001D000103800BEF2EB8871A4370610C437061041
:1001E0003402001090A31AE700201F49086006C8D7
:1001F00081F3088810471D48006800282FD10DA4FE
:100200000ECC002902D000F012F8F9E71849194A7B
:10021000002000E001C19142FCD1174988471749ED
:1002200088471749884700BEFDE701C901C29A42C5
:10023000FBD37047C4370610C0000020F023002015
:10024000F45A06100000042000000420F45A06109E
:10025000001004200010042000000000704709482E
:100260000DF07AFF0047000008ED00E0000000D02C
:1002700000240020B03E03202DC800100D350010D2
:1002800059C900105756000006005250ABB36053D6
:100290000C4E051006005250861C03021C4E051021
:1002A000060052505422A29D284E051005005250BF
:1002B000DE65F468F45A0610F8B5C0460448054BEC
:1002C00010B5834203D0044B002B00D0984710BDDB
:1002D000F0230020F023002000000000064807491A
:1002E000091A8910CB0F591810B5491003D0044BC7
:1002F000002B00D0984710BDF0230020F0230020F1
:100300000000000010B5074C2378002B09D1FFF73F
:10031000D5FF054B002B02D0044800E000BF0123AD
:10032000237010BD10250020000000002866031077
:10033000054B10B5002B03D00449054800E000BF71
:10034000FFF7CCFF10BDC0460000000014250020C0
:1003500028660310F0B5102100240D4F0D4A3B68AC
:100360000D4EFA2518009369AD0019420CD193691E
:100370001942FCD113680124335401300023A842F0
:10038000EFD093691942F2D0002C00D03860F0BD54
:100390000433002000400340342B002070B52D4B67
:1003A000820419790400920C002927D0810B595C32
:1003B0001F290DD8284B88031B68284E1B189D5CED
:1003C00033681B0234D433685B072BD4280070BD1C
:1003D0003D2920D8282932D80800214B2038800315
:1003E0001E4E1B189D5C336818022DD4DB07EDD51B
:1003F0002A0021001B480FF015FAE7E7164B1B688F
:100400009D5C164B1B685B07E0D501002B0016486E
:100410000FF008FADAE73E290ED03F29D6D1134B68
:100420009D5CD3E72A00210011480FF0FBF9CDE7CE
:1004300010480FF0F7F9C6E70F4B9D5CC6E70F4871
:100440000FF0F0F90025C1E70A480FF0EBF9336827
:10045000CCE7C0464838002080150020D438002062
:10046000E03B0120243B0510343B0510883B002075
:10047000E03A0510D03A0510F8DA0020F03A0510FD
:10048000124B70B51B6805000C00114E5B0515D4AE
:10049000E1432722AB7C49B20B40AB74EB7C1940A3
:1004A000E974B37CB25C134304D10221727AEB731A
:1004B0008A4372720122074B1A7070BD0649831B72
:1004C0005943220005480FF0ADF9E1E7D438002088
:1004D000703800200F3900203DCFF33CD83C051088
:1004E00010B5006803785B2B03D009682BF0EAFB9A
:1004F00010BD01204042FBE7002370B5154C164D9E
:10050000236086B0E98B15480FF08CF923685A1CDC
:100510002260052B08D8124E30000FF083F92368B3
:100520005A1C2260052BF7D9A8896B882A7869782C
:1005300004906889039028890290E8880190A8882F
:10054000009008480FF06EF902200AF08FFB06B009
:1005500070BDC0463838002048330020083D0510E3
:10056000103D0510143D051070B51B4B15001A7990
:100570000C00002A15D08A0B995C1F2911D9A204FE
:10058000920C3D290ED828291CD80800134B20387E
:100590008003134E1B189D5433681A0216D4DB07D0
:1005A00007D470BD3E290AD03F29FAD10D4B9D5486
:1005B000F7E72A0021000C480FF034F9F1E70B4B64
:1005C0009D54EEE70A480FF02DF9EAE709480FF0CD
:1005D00029F93368E3E7C04648380020E03B0120B2
:1005E000D4380020883B0020843B0510F8DA002036
:1005F000483B05107C3B051010B5394C637A217AD5
:100600001B025B180021002B05D0E12019004003DC
:100610000DF0F8FD01090322E37832481A40053253
:100620000FF000F93823E1782F4A0B409B00D35894
:100630009F4653200EF0BEFFE1784907C90F0131F4
:100640002A480FF0EFF8E3785A062AD45BB2002B61
:100650002EDB2379DA071FD49A0718D45A0711D44E
:100660001A070AD4DB0604D4217821480FF0DAF8FF
:1006700010BD20480FF0D6F8F6E71F480FF0D2F86B
:100680002379EFE71D480FF0CDF82379E8E71C4800
:100690000FF0C8F82379E1E71A480FF0C3F823797F
:1006A000DAE719480FF0BEF8E3785BB2002BD0DA36
:1006B00016480FF0B7F8CCE74E200EF07BFFE1783C
:1006C000BBE74F200EF076FFE178B6E745200EF04D
:1006D00071FFE178B1E74D200EF06CFFE178ACE7F7
:1006E000D8380020883C051028660310903C05107F
:1006F000CC3C0510C43C0510BC3C0510B43C0510B6
:10070000AC3C0510A43C0510943C05109C3C051025
:1007100010B584B003AB02AA01A904000BF0C8FB1A
:10072000002803D1210005480CF034F90198039A00
:1007300002990BF081FB012004B010BD543C051060
:1007400070B50478002C17D0002120220D26114B03
:1007500000255D5F104B00290FD1A54214D0996987
:100760000A42FCD11C60017801300D394C426141D4
:100770000478C9B2002CEED170BD99690A42F1D05B
:1007800099690A42F9D1EDE799690A42FCD11E60E4
:10079000E5E7C046E83B032000400340F0B5C6460D
:1007A00000B5314BC6B01B68DB0632D500232F4C99
:1007B0002F4D304F2360E98B3B6899422DD02E4856
:1007C00039600FF02FF8398806A805F00FF8236874
:1007D0005A1C2260052B08D8284E30000FF022F852
:1007E00023685A1C2260052BF7D906A924480FF06C
:1007F00019F8A8896B882A78697804906889039029
:1008000028890290E8880190A88800901D480FF080
:1008100009F846B004BC9046F0BD1B4B8EB298461A
:100820001B88002B01D09E4217D03000FFF7B6FD89
:10083000ED2801D0E98BC2E73B685E1C43461B886C
:10084000B6B2002B01D09E420AD03000FFF7A6FDC1
:10085000F4231840B028EDD1DBE7FFF74DFEE4E7C5
:10086000FFF74AFEF1E7C046D438002038380020B0
:100870004833002078150020083D0510103D051074
:10088000003D0510143D051000390020404B70B5A7
:100890001868002803D005F07DFC002858D13D4B96
:1008A0001B7B002B2AD13C4CE37BE57D002B04D144
:1008B0002433E35C002B26D170BD0422374EA17D8A
:1008C00033680A420DD00E218D43A17C88074BD599
:1008D0000C2215431A0604D5290031480EF0A2FF58
:1008E00033689022D2002575134236D101222D4B58
:1008F00029002D481A7029F05BF8DDE7FF212A480E
:1009000029F056F8CFE70422244EA17D33680A422D
:1009100010D00E218D431931615C88072CD40A4216
:1009200001D0022215431A0604D529001C480EF0F6
:1009300079FF33682922A5549022D20013421ED198
:100940000222184B290018481A7029F031F8B3E731
:10095000FF21154829F02CF8A1E72A0000211348AF
:100960000EF060FF257DC1E70A4202D00A2215433E
:10097000B0E708221543ADE71543EDB2D3E72A00EF
:1009800001210A480EF04EFF2923E55CD8E7C04656
:1009900008840020D838002070380020D438002087
:1009A000F43B051012390020483300200C3C0510A0
:1009B0001F4B70B51B880C00002B01D099422DD025
:1009C0002000FFF7EBFC25231A4A0400D35C002B20
:1009D00007D0DF230340DD2B1CD0CB281AD0ED2815
:1009E0001FD0154D4D2C03D000232B70200070BD5F
:1009F0002B78012BF8D1114A1268002A04D000216B
:100A00000F4AD1730F4A137000220F4B1A70FFF771
:100A10003DFFE9E70222084B1A70E7E7FFF76CFD9C
:100A2000CEE7054D2B78002BDED101332B70DDE7AF
:100A30000039002048330020163900209C3800205F
:100A4000703800200F39002012390020F8B50278E4
:100A50000100002A18D0144B05000027DF5F20207A
:100A600000230D26114C002B17D1974210D0A369FB
:100A70001842FCD122602B7801350D3B5A4253417C
:100A80002A78DBB2002AEED109480EF0CBFEF8BD81
:100A9000A3691842FCD12660E9E7A3691842E9D0AE
:100AA000A3691842F9D1E5E7E83B03200040034081
:100AB000D8420510F0B5C646214B00B51D68002D83
:100AC00006D0032D38D0012D24D004BC9046F0BDB3
:100AD0000478002CF9D00D211A4B060000229A5EF2
:100AE000202700238C469046174A002B1DD1A04595
:100AF00015D093691F42FCD11460337801360D3B49
:100B00005C4263413478DBB2002CEED102239D437A
:100B1000012DDAD101000D480EF084FED5E793696E
:100B20001F42FCD163461360E3E793691F42E3D0A1
:100B300093691F42F9D1DFE70478002CCBD1E9E7B4
:100B400068140020E83B032000400340D842051011
:100B5000F0B5DE464E46454657468023E0B5554C37
:100B60005B02A544544C5549220002A80DF06EFAD0
:100B700002A8FFF76BFF0A22210022A815F016FC3D
:100B8000F72300250600184207D018F037FE33007F
:100B9000020021004A480BF0FDFE6B46DE1C494B6B
:100BA00000249A46484B494F9946494B9B461EE0C4
:100BB0009B0BF95C1F2941D8424B88031B681B180B
:100BC0009D5C414B98461B68180255D45B075AD46C
:100BD00001AB0122310022A8357016F06BFB019B9E
:100BE000002B17D0802301345B029C421AD0A3B2A1
:100BF00039799A04920C0029DAD153461B689D5C1E
:100C00004B461B685B07E3D52B00210058460EF0CE
:100C100009FEDDE72F480EF005FE802301345B025C
:100C20009C42E4D122A816F089FEBB239B009D4480
:100C30003CBC90469946A246AB46F0BD3D2906D93C
:100C40003E292ED03F29C3D1234B9D5CC0E72829E4
:100C50002AD80800214B203880031B189D5C1A4BB2
:100C600098461B68180214D4DB07B1D52A0021006E
:100C70001B480EF0D7FDABE71A480EF0D3FD4346F4
:100C80001B685B07A4D52A00210017480EF0CAFD97
:100C90009EE714480EF0C6FD43461B68DB0797D558
:100CA000E4E7124B9D5C93E711480EF0BBFD002575
:100CB0008EE7C04614FDFFFFBC6F0310C86F031022
:100CC0000470031080150020D4380020483800201C
:100CD000343B051020700310883B0020E03B0120CE
:100CE000243B0510D03A0510E03A0510F8DA002050
:100CF000F03A0510F0B5DE46454657464E46E0B59B
:100D000083B000900C00881C03210DF07BFA830057
:100D1000180098460EF068FA019000285FD0002C69
:100D20004DD084460022002032493F262BE0EB5C68
:100D3000821C1B029A46A24258D20330AB5C0200CE
:100D40004F463F04B94653444B449F0CCF5DBA46CF
:100D50001F0B3740CF5D3F02B94657464D462F43E4
:100D6000B9469D092F003340CB5C37401B069B469C
:100D70004B46CD5D2D042B435D462B43654608C590
:100D8000AC4694420AD9009D431CAA5C91461A00C5
:100D9000A342CCD3180000239A46D1E703212000B8
:100DA0000DF030FA144B8900CA58002A07DD43467B
:100DB000981A019B3D219C4660440EF08BFA019BE2
:100DC0001C0043441D004346002B05D0207801340D
:100DD0000EF0F0FBAC42F9D101980EF063FA03B0CB
:100DE0003CBC90469946A246AB46F0BD100000239D
:100DF000A6E7C04644320510943B0510F0B54546C1
:100E0000DE4657464E46E0B5464B83B01C6801901F
:100E1000009115009846002C00D170E0009B9B07C4
:100E200063D1009B9B085A00904698444346009A21
:100E30002B609446019B63445A1E12783D2A04D1CC
:100E40003E3A9446E04442462A60023B1B783D2BE2
:100E500004D13E3B9C46E04443462B6040460EF0A6
:100E6000C3F98446002840D0009B002B3FD0019B53
:100E700000255A1C0023002199462FE0E35C9B04C7
:100E800010783D2802D0205C00031B1850783D28C4
:100E900002D0205C80011B189078043189463D28DF
:100EA00001D0205C1B18454514D21F0CBA46681CA3
:100EB000060067465046785546452FD2A81C824604
:100EC000180A834660465F468755C24528D2574672
:100ED0000335C355009B04328B4208D94B46019819
:100EE000C35C3D2BCAD10023CAE700239C46604661
:100EF00003B03CBC90469946A246AB46F0BD80206C
:100F000040000EF071F943460400186000230649C2
:100F1000CA5CA3540133402BFAD17FE73500D9E7EF
:100F20005546D7E79C3300204432051010B5214CBC
:100F3000A54404AA0C0007F05DFE431C26D001A9BD
:100F4000002204A808F054FC21001B480EF06AFCA3
:100F500003E0010010A8FFF7CDFEC02210A9120186
:100F600001A808F06BFC0028F3D10A300EF022FB38
:100F7000002028F0C1FD0024431C0FD001A809F077
:100F800087F92000C4231B019D4410BD0B4B210099
:100F90001A680B480EF046FC0124F2E728F05AFDCF
:100FA00000682BF06FF8010006480EF03BFC01349E
:100FB000E4E7C046C0F3FFFF28320510E43B0320FE
:100FC0001032051030320510F0B5DE4657464E4659
:100FD0004546E0B53F4C0B00A5443F4A04000F21B5
:100FE00008A80DF047F8DB230CAA5B0008A9200035
:100FF00009F050F9431C65D0012205A90CA808F09E
:10100000F7FB00239A46354B354F9946354B364E04
:101010009846364B364D9B4605E028000EF016FBF1
:10102000039B002B37DD38000EF010FB03A93000C6
:101030002AF0F6FC039B002BEFDD48460EF006FB82
:1010400019A940462AF0ECFC19A82BF033F804AAA1
:101050000100049019A8FFF7D1FE049A01000400D2
:1010600005A808F01FFD049A90420BD0214B03996C
:101070001B685846009300230EF0D4FB0023039313
:1010800001339A4620000EF00DF928000EF0DEFA2A
:10109000039B002BC7DC05A809F0FAF8431C07D016
:1010A000154B9D443CBC90469946A246AB46F0BDCC
:1010B0005346002BF4D10F4B00211A680F480EF055
:1010C000B1FBEDE70B4B08A91A680D480EF0AAFB1F
:1010D000E6E7C04694BFFFFF7C6D03109C6D0310D4
:1010E000F8690310046A03108C3C05100C6A0310A5
:1010F000D06D0310E43B03206C400000EC6D031046
:10110000846D0310F0B557464546DE464E46E0B5C1
:10111000934BA7B005900491079200249A460025AE
:1011200003E053461B191D70013450462AF0C2FFDC
:10113000A042F6D8049C211E00D10BE10598894BF2
:101140008346042229F0D2FF08A9079807F05EFF22
:10115000A3009B440023D94606930393049B002BD2
:1011600000DCBEE0039C0A2120000DF023F83023B0
:101170009B460A21834420000DF01CF84B46303179
:10118000D9460291059C9B4603E00434A34500D157
:10119000A6E023681A784A45F7D15A7802998A421C
:1011A000F3D19D78002D00D1D1E02E2D00D1CEE0DD
:1011B0006D4B02266D4F984601E02E2D13D0504600
:1011C0002AF078FF03217B5D50442A000B40022B5C
:1011D00000D1203A41460CF039FF22680136955D76
:1011E0003300002DE9D11F00092E0DDC604B3500C6
:1011F000984650462AF05EFF01355044022241468F
:101200000EF06EF80A2DF4D150462AF053FF022258
:10121000504458490EF064F82368DA5D2E2A00D154
:101220008EE09D5D002D00D18FE0504B0027019393
:101230004D4B984650462AF03DFF0322019B5044F7
:101240005B5D13402A00022B00D1203A41460CF08E
:10125000FDFE216801378B19DD5D002DEAD1022FDB
:101260000BDC50462AF026FF013750440222404949
:101270000EF036F8032FF4D121681AAA079807F068
:10128000B9FC10A91AA808F09FFA50462AF012FFDC
:10129000129B089E0500F0183100013801930CF0F4
:1012A00089FFF2179205920D92199212424328007B
:1012B000314950440CF0CAFE50462AF0FBFE7F2212
:1012C000129B5044D9170A40D218D2112B490CF066
:1012D000BDFE069B043401330693A34500D058E7B6
:1012E000D946039B01330393202B00D036E75046A9
:1012F0002AF0E0FE0B9B22491A000193089B504400
:101300005A43D3179B059B0D9B189B12069A0CF012
:101310009DFE50462AF0CEFE089A0A9B5044534345
:10132000DA179205920DD218921216490CF08EFE21
:10133000504627B03CBC90469946A246AB46F0BD0D
:1013400001369D5D002D00D06FE7002789E7022759
:1013500002264BE7504410220B490DF0C1FFE7E78E
:10136000F81A0120E1040010046E0310691A061037
:10137000B83C051088440510086E0310146E031065
:10138000206E0310406E0310546E0310F0B5DE465D
:1013900057464E4645460023E0B54F4CA5440293C0
:1013A0004E4B03909A464E4B9B4605E058460EF036
:1013B0004DF9059B002B6FDD4A480EF047F905A952
:1013C00050462AF02DFB059B002BEFDD46480EF022
:1013D0003DF907A945482AF023FB07A82AF06AFE31
:1013E00006AA0100069007A8FFF708FD069B8046A5
:1013F000002B48D0029A039B944663449BB201930E
:101400003B4B00243B4F99460FE03E294CD03F29EF
:1014100003D1394B9D5443461D5D290048460EF0CB
:1014200001FA069B0134A34228D943461D5D3B794E
:10143000002BF2D0019B1E19B6B2B30BF95C1F2929
:10144000EBD9B204920C3D29DFD8282931D80B0002
:101450002A48203B84469B0363449D54284B1B68C9
:101460001A022CD4DB0731D443461D5D48462900BF
:101470000EF0D8F9069B0134A342D6D8029B9C46B5
:10148000A4446346029340460DF00CFF58460EF00C
:10149000DDF8059B002B8FDC1A4B9D443CBC90462D
:1014A0009946A246AB46F0BD174B9D5443461D5D81
:1014B000B3E716480EF0B6F943461D5DADE7144894
:1014C0000EF0B0F90E4B1B68DB07CDD52A003100BA
:1014D00010480EF0A7F9C7E7DCBFFFFF8C3C0510F2
:1014E000D06D0310F86903109C6D0310046A03109B
:1014F000286A031048380020883B0020E03B012088
:10150000D438002024400000F8DA0020483B0510C1
:101510007C3B0510843B051070B54B480EF096F8E7
:101520004A4C4B4821002AF07BFA4A4920002AF015
:10153000C9FB002805D10122474B1A60474B0132F5
:101540001A60474920002AF0BDFB002805D104227B
:10155000414B1A60414B023A1A60424920002AF07E
:10156000B1FB002804D102233B4A13603B4A1360BD
:101570003D4920002AF0A6FB002805D10322364B66
:101580001A60364B013A1A60384920002AF09AFB5B
:10159000002804D10A23304A1360304A13603449CA
:1015A00020002AF08FFB051E46D0324920002AF089
:1015B00089FB002805D10422284B1A60264B0232F1
:1015C0001A602D4920002AF07DFB002805D1042255
:1015D000224B1A60204B03321A60284920002AF05F
:1015E00071FB002805D104221C4B1A601A4B0432EF
:1015F0001A60234920002AF065FB002805D1042247
:10160000164B1A60144B06321A601E4920002AF04D
:1016100059FB002805D10422104B1A600E4B0532ED
:101620001A60194920002AF04DFB002803D10B4B0A
:101630001860094B186070BD14480EF007F8074B8E
:101640001D60054B1D60B0E78C6E031014840020F4
:101650009C6F0310986E031068380020A838002093
:101660009C6E0310A06E0310A86E0310B46E0310DE
:10167000BC6E0310CC6E0310D46E0310DC6E03102E
:10168000E46E0310EC6E0310B46F0310C06E031011
:10169000F0B5334883B00DF0D9FF324C3248210009
:1016A0002AF0BEF920002AF005FD05000C281DD8FF
:1016B0002378002B25D0002600202C492E3B5A42AF
:1016C00053410131C0184B1E1B78002BF6D1012865
:1016D00006DC002E15D00522254B1A6003B0F0BDA4
:1016E0000C22244924480DF0FBFDF4E7224F12227E
:1016F000224938000DF0F4FD23780126002BDBD1C0
:10170000E9E72E2301A920000B802AF027FB061E03
:101710000AD008280EDC2B1A042B1ED86A1C2100C4
:1017200017480DF0DDFDD6E71348164902000CF00E
:101730008DFCD0E7144D104F2A68144938000CF086
:1017400085FC20002AF0B6FC831B042BC3D92A6831
:101750000F4938000CF07AFCBDE7074F0A4DF6E759
:10176000206F0310148400202C6F031015840020B8
:10177000A8380020486F0310A07F0020346F0310AA
:10178000B0DA0020546F0310D4DA00205C6F03102D
:10179000746F031010B51B490B78002B0CD11A483D
:1017A0000DF054FF194B1B68012B01D0022B0CD1FB
:1017B0000622174B1A6010BD16480EF033F80023AE
:1017C000134A1360114A1360F5E7032BF0D00A2B7C
:1017D00004D10F4A136006231360ECE7042BE7D013
:1017E000062B02D10A4A1360E5E7072BE0D0082B4D
:1017F00001D1074AEFE7092BFBD00A2BDBD1044AC2
:10180000E9E7C046A07F0020D06D031068380020B3
:10181000A83800202C6A0310F0B55746DE464E4625
:101820004546E0B5C84C8FB0236802AF012B00D10C
:101830008CE0022B39D0C54A9146032B58D1C44ABB
:10184000C4491278895C0B40012B00D1D4E0C24E10
:10185000C24930000CF0FAFBC14D32002900484665
:1018600006F0D2FD431C00D1BEE0BE4E0020310088
:101870002AF06CFA3100BC482AF068FABB4BBC4A2B
:101880000193BC4B043A009301212B00002007F088
:10189000F9FE102332001E00B749F8180CF0D6FBF1
:1018A000B9192800FFF742FB86E0A94B1A78A94B2B
:1018B000995C03230B40012B00D19BE0A64EA74966
:1018C00030000CF0C3FBA14BA54D180032002900DD
:1018D000994606F099FD431C00D17FE0A1492800FC
:1018E000FFF772FB0922A54B1A602368032BA6D0D1
:1018F000042B00D090E0964B1A78964B995C03230A
:101900000B40012B00D17FE0934D944928000CF04F
:101910009DFB934E2A003100484606F075FD431C9E
:101920006CD010238F4D9449F8182A000CF08EFBD0
:1019300010233000F91807F0DDFB431C3CD1904B1D
:1019400029001A688F480DF06DFF35E0804B1A783A
:10195000804B995C03230B40012B00D120327E4E3B
:101960007E4930000CF072FB784B7D4D1800320040
:101970002900994606F048FD431C47D07B4E7D4B1D
:1019800001960093804A2B000121002007F07AFE87
:10199000784B2A0019683068FFF7B4FB05002AF07D
:1019A00089FB06000A200DF005FE28003100FFF734
:1019B000A1F90A200DF0FEFD0822704B1A600023E9
:1019C0002360484607F0F0F808F034FDBD460DB03E
:1019D0003CBC90469946A246AB46F0BD684B6B486E
:1019E00019680DF01FFFFEE7654B684819680DF098
:1019F00019FFFEE7203261E7203228E7604B634899
:101A000019680DF00FFFFEE720327DE75C4B5F4861
:101A100019680DF007FFFEE7062B04D15C4B1A682E
:101A20005C4B1A80C8E7072B04D1594B1A685A4BF4
:101A30001A60C1E7082B50D1554B58481E686B46B9
:101A4000BB600DF003FE10239A46BA4400235246B1
:101A50003100137452480DF0E5FEB3B27B600F23E2
:101A60009846504B00259B460CE02E2351468B5444
:101A7000434601352B421DD06B072AD080239B00A3
:101A80009D4223D07B68581980B2FEF787FCF8602E
:101A9000010045480DF0C6FE4246FB682A40203B47
:101AA000DBB25E2BE1D85346F968013599544346C1
:101AB0002B42E1D1514658460DF0B4FE71193B4816
:101AC0000DF0B0FE80239B009D42DBD1BB689D469C
:101AD00072E720200DF06EFDD0E70A2B09D12C4BC8
:101AE0001868FFF753FC0922244B1A600023236077
:101AF00067E7092B00D064E7254B00251B6800260B
:101B000098469BB29B4610239A46BA4443462848BF
:101B100059190DF087FE274B50461E605B46591938
:101B200089B203F063FE514623480DF07BFE214B42
:101B30001B689C466544FB603F2DE7DD08220F4B88
:101B400026601A603DE7C046683800206C3A0120E4
:101B50006C150020691A06100C7D0020386A0310ED
:101B600080DA0020B0DA002014340020D0DA00201F
:101B700070150020387D00207C6D0310A8380020EF
:101B8000E43B03206C6A031084150020446A0310B0
:101B9000C8DA002000390020D4380020846A0310FD
:101BA000C46A031030390510946A03109C6A03104C
:101BB000083D051038380020A46A0310F8B5CE4659
:101BC00047464C4B80B519684B4808F03BFC4B4AE4
:101BD0004B4C91464B4A236890464B4D4B4F9A00D5
:101BE000632BFDD8A9588F460023494823600DF088
:101BF00019FE0CBC90469946F8BD46480DF026FDEE
:101C00000023454A23601360E9E74448F6E7444867
:101C10000DF01CFD4349444829F002FF2368DEE72C
:101C2000FFF7FAFD2368DAE7FFF7B4FD2368D6E78C
:101C300048460DF00BFD3900404629F0F1FE3A68A8
:101C40003A4B9A4247D805232360C8E7FFF720FDA7
:101C50002368C4E736480DF0F9FC364E32483100AF
:101C600029F0DEFE344A3378D15C03220A40022A8E
:101C700001D1203BDBB21A00413A33700F2A31D830
:101C80002E4A1370244B1B68012BDCD003232360E6
:101C9000A5E7FFF741FC2368A1E729480DF0D6FC32
:101CA000244E2148310029F0BBFE0022254B264955
:101CB0001A7030002AF006F8002801D101232360B1
:101CC0002249300029F0FEFF002802D1632323605F
:101CD00085E7236883E71E491A480CF0B7F9052306
:101CE00023607CE7154B1B491A7816480CF0AEF9B7
:101CF000A9E7C046083400206C3A0120646E031046
:101D0000A8380020706E03100C670310C8DA00209A
:101D10003C3C0510686D031068380020786D031096
:101D2000186F0310788A00209C6F0310FFFF0000DB
:101D3000F86E031014840020691A06106C15002038
:101D4000906F0310A07F0020A46F0310B46F0310E6
:101D5000746E0310006F0310F8B53A4B04001B8833
:101D6000002B01D098424DD0374BA2041979920C28
:101D7000002931D0A10B595C1F2916D8334B880399
:101D80001B68334F1B189D5C3B681B0243D43B68A8
:101D90002E005B0739D431002E480DF043FD2E4A4A
:101DA0002800136801331360F8BD3D2922D8282983
:101DB0003CD80800294B20388003254E1B189D5C19
:101DC0003368180238D42E00DB07E4D52A0021003E
:101DD00023480DF027FDDEE71C4B1B689D5C1C4B68
:101DE0002E001B685B07D6D52B0021001D480DF087
:101DF00019FDD0E73E2915D03F2910D11A4B9D5C23
:101E00002E00C8E7FEF778FBAEE72A00210017484E
:101E10000DF008FDBFE716480DF004FDB7E70025FB
:101E20002E00B8E7134B9D5C2E00B4E712480DF06E
:101E3000F9FC00260025AEE70D480DF0F3FC3368F1
:101E4000C1E7C04600390020483800208015002036
:101E5000D4380020443D051038380020E03B0120F4
:101E6000243B0510343B0510883B0020E03A051068
:101E7000D03A0510F8DA0020F03A0510194B10B5E9
:101E80001B68002B11D1184B1A68184B1B689A421B
:101E90001DD0174B01201B68012B1CD0154B9B69D3
:101EA0009B0601D40223184310BD134B1A68134B31
:101EB0001B689A420DD00E4B03201B68012BF3D1F7
:101EC0000F4B186804F0A0F843425841EAE700209D
:101ED000E4E70220E8E70A4B186804F095F843426B
:101EE0005841DBE768140020043300200C33002045
:101EF0002834002000400340083300201033002025
:101F000008840020184B10B51B68002B0ED1174910
:101F100017480A680068904217D01648541C805C25
:101F2000FA229200944215D00C6010BD124A134957
:101F300013680968994212D01148591CC05CFA23F1
:101F40009B00994208D01160EFE70E480DF06AFC43
:101F50000020EAE70B60E8E700231360E5E70A48A2
:101F60000DF060FC0020E0E7681400200C33002036
:101F700004330020342B00201033002008330020CD
:101F80001C2F0020843205109C320510F8B5CE4677
:101F90004746C74E80B533680D009B0700D571E0FA
:101FA000FF212940BA2900D174E00B00A03B9BB26D
:101FB000072B16D8BF4A1068002800D176E0BE4F24
:101FC0003A78012A00D1F6E13A78002A64D1012159
:101FD000294004F05DF8040020000CBC90469946AE
:101FE000F8BD0A00803A92B2072A2FD8B14B186880
:101FF000002805D0B04B1B78022BE8D0002BE6D090
:10200000AE4B1B68002B63D1AD4B1B68994200D1CE
:10201000CEE0AC4B1B788B4252D0AB4B1B788B4243
:1020200052D0AA4B1B788B4200D1BDE0A84B1B7845
:10203000994203D3DA1D914200DCEAE03368782448
:102040001B07C9D5A3480DF0EDFBC5E73F2A00D813
:1020500021E20B00103B072BD6D89F4B1B68012BAE
:10206000D2D107219D4B0D401868E9B202F00AFD5C
:10207000336804009B04AFD50200290098480DF096
:10208000D1FBA9E797480DF0CDFBFF212940BA29E4
:1020900000D08AE7CC249FE70A00103A072A03D829
:1020A0008D4A1268012ADCD0072BADD88E4B1B78E5
:1020B000002BA9D007218D4B0D40AD005B599F46E9
:1020C0008B4B1C78E4B287E78A4B1C78E4B283E739
:1020D00002231A002A4090460121404629403268D6
:1020E000002800D0A5E0844D2F00002900D168E130
:1020F0003B7BFC7AFB727B7B3B73BB7B002B00D072
:1021000087E101213B7A8B433B72530500D597E170
:1021100002212720BB7C8B43BB74FB7C8B43FB746D
:10212000AB7C285C034303D1687AFB7388436872F5
:10213000724B9946012349460B70397A3E33194058
:102140003972797A0B407B72130607D541464B1ED4
:102150009941220061316A480DF064FBBB7B002B82
:1021600000D139E77B78DB0600D435E70222022173
:10217000BB7C9A430B43BB7433681B0600D47DE1E0
:10218000002A00D128E702215E480DF04BFBEB7BD3
:10219000002B00D020E701220221FA736B7A0B4357
:1021A0006B724B461A7017E7574B1C78E4B213E773
:1021B0000123564ED02537003400984608372D06A7
:1021C00043462078002283400121AB62013409F0AC
:1021D000FDFDA742F4D1C820002108F035FDD02331
:1021E0001B06994601230024012598464B4630786A
:1021F0005B684246C3401A4201D02C19E4B2002267
:1022000000216D00013609F0E1FDEDB2B742EDD1DC
:10221000E2E6ED1AEDB2052D00D10EE100D8C4E0E2
:10222000062D00D106E1072D00D0D5E6384B1C78ED
:10223000D2E6314D2F001537002900D058E707208E
:102240000400697D0C4081436975697F9943697712
:10225000130600D5E4E0012C00D8FAE0022C01D0EE
:10226000FF24B9E63368EC7F1B0600D4B4E62100F6
:1022700028480DF0D7FAEC7FAEE67F247022264B7B
:1022800099790A400C4008219A71DA7A114200D1FA
:10229000A2E68A430739DA72114200D1E7E003313E
:1022A0005970197B002900D096E61A7394E6C0464F
:1022B000D4380020088400200A3900209C380020EF
:1022C0009426002066140020641400205814002076
:1022D000591400200033051074150020C4DA0020C2
:1022E000EC320510B03205100D3900209C68031047
:1022F0000739002065140020703800200F390020B5
:10230000BC320510D0320510033900205C140020C7
:10231000E03B0320AC440510D8380020FFF7AEFDA9
:102320006F21604B5A798A4390310840C10700D52C
:1023300095E014005A71810708D50F2220009443BC
:102340006021220008430A43D2B2C4B25A7143E664
:10235000544B1C7940E6534BDC783DE6514B5C789E
:102360003AE6504B9A7A002A23D05C7A34E64D4BF9
:10237000DC7931E64B4B9C7A002C6ED10121DA7A64
:10238000114209D002208A43DA7210427CD0587080
:10239000197B002900D11A73FFF770FDC30700D421
:1023A0001AE6FFF7AFFDC4B216E6002D00D013E623
:1023B0003D4B1C7810E62A40110003F069FE040032
:1023C0000AE60720040029780C4081432970297A05
:1023D0002030994329720B00285CA97C014302D06C
:1023E00002210B432B7213063DD5220061212F4899
:1023F0000DF018FA012C00D932E733682D192C7A28
:102400001B0600D4E8E5210029480DF00BFA2C7AD0
:10241000E2E5013BDBB2BB73002B00D075E670E652
:102420002200622121480DF0FDF9012C00D915E7A9
:102430001535E2E71F4B1C78CEE51F4B1C78CBE52A
:102440001E497B1B022259431D480DF0EBF93268EF
:102450005EE615352C19247ABEE51C7ABCE501240C
:1024600014435C7167E7012CF4D9FF24B4E502251D
:102470002800104006D159701873ADE5002A00D02D
:1024800085E6A9E55D700CE7100701D55C707FE774
:1024900059701C7380E70B4A0B4F1068002800D05E
:1024A00092E5B1E5D8380020E33B03202033051046
:1024B000AC44051078DA0020E23B03203DCFF33C2A
:1024C000D83C0510088400200A39002010B5074BBD
:1024D00000781B68002B06D12021054A9369194218
:1024E000FCD1106010BD0DF065F8FBE7681400200A
:1024F00000400340F0B557464546DE464E46E0B53F
:10250000B44D85B02B680F0014009B0700D579E00F
:10251000FF233B40BA2B15D01A00A03A92B2072AEB
:1025200017D8AD490868002800D179E0AB4E317862
:10253000012903D03178002968D1012139402200D6
:1025400003F0EAFD05B03CBC90469946A246AB4676
:10255000F0BD1900803989B207293BD89E4A10681E
:10256000002805D09D4A1278022AE6D0002AE4D03D
:102570009B4A1268002A6CD17F2139400A00783AC0
:10258000042A5AD9974A1268934200D1A3E0964A86
:1025900012789A4200D18AE1944A12789A4200D184
:1025A00057E2934A12789A4200D1F0E0914A1278A9
:1025B000934200D253E2D11D8B4200DD4FE2BF1A9D
:1025C00007228D4B3A401A7001228C4B1C708C4BA9
:1025D0001A70B7E73F2900D898E21A00103A072A84
:1025E000CAD8884A1268012AC6D107262B683E40FD
:1025F0009B0400D5CEE0844BF1B21868220002F0B3
:10260000B5FA9FE781480DF00DF981E719001039FF
:10261000072903D87B4909680129E6D0072AABD8E6
:102620007B4A1278002AA7D0072102ABD81D394077
:10263000784B89005B5804709F46774BD1B25C544D
:102640002B681B0200D47DE7220074480DF0EAF8E5
:1026500078E702233B409B4600D08FE00193704B0C
:1026600098461E002B68FA0700D5AEE1072732789E
:102670003A409146924680221A4200D11DE15B46C3
:102680001F3A591E8B4193469B444A4623005946A4
:1026900064480DF0C7F833781F403B00013BBA4651
:1026A000062B00D90FE180222B68B946134205D0D2
:1026B00023003A0059465C480DF0B4F84B46F454F8
:1026C000464503D05346022B00D1B472072233781B
:1026D0009343337036E701200100544B1A78914040
:1026E000D0221206516220424FD1916101225978C5
:1026F0008A40D02109064A62A00700D5A7E18A6175
:10270000012299788A40D02109064A62600700D5E3
:102710009BE18A610122D9788A40D02109064A6268
:10272000200700D58FE18A61012219798A40D021E2
:1027300009064A62E00600D583E18A6101225979DF
:102740008A40D02109064A62A00600D575E18A6157
:10275000012299798A40D02109064A62600600D593
:1027600069E18A61DA7901239340D02264B21206CA
:102770005362002C00DB62E15361E3E60123019325
:10278000274B1E00984615366CE75161AEE7284B83
:102790001C70D7E62200310026480DF043F82AE7E6
:1027A0007F22254BDC7094439C722B681B0500D460
:1027B000C8E6FDF721FFC5E660239C431E4B9C70D5
:1027C000C0E61D4B9A7A002AE2D05C722B681B058A
:1027D000EFD4B7E6D4380020088400200A3900205E
:1027E0009C380020942600206614002058140020F5
:1027F000641400205914002004810020108400205B
:102800000539002074150020C4DA00203833051083
:102810000D390020BC68031048380020C83305106B
:10282000703800204C3305107C3305105C140020F8
:1028300065140020B0330510D8380020B74EB37AA5
:10284000002B00D036E1FFF741FE0222F37A1A4254
:1028500012D09343013A1100F372194000D038E1CD
:102860000820184000D14EE17170327B002A00D15F
:1028700033739A0700D565E6022231780A4200D107
:1028800060E602211943DB07DB1713400233737044
:10289000337BF172002B00D054E6317352E69F4B2C
:1028A000DC714FE63F219D4B0C401C714AE6012232
:1028B0009B4B1C709B4B1A7044E64B46013BDBB2B2
:1028C000062B00D8FAE638232340103BDBB23470E5
:1028D000282B00D936E6944A9B00D3589F46002304
:1028E00073742B685B0500D5FCE00122B37C414684
:1028F0009343B374F37C9343F374434626329B7C37
:102900008A5C134306D142460221527AF3738A430A
:1029100041464A720122854B1A7013E60123337433
:1029200010E62B681A0600D5E8E02C2232722B3A0A
:1029300072720022B2725B0500D5D9E00722B37C27
:1029400041469343B374F37C9343F374434620327C
:102950009B7C8A5C1343DDD1D5E72B685B0500D5F2
:10296000BAE00422B37C41469343B374F37C9343AF
:10297000F374434623329B7C8A5C134305D14A7A25
:1029800002218A434146F3734A720122674B1A704F
:10299000737A2F3293437372D4E57022737A934320
:1029A0007372CFE5464500D0CCE500230222F373D5
:1029B000737A3000934373720721FDF761FD300095
:1029C00007211530FDF75CFDBCE50421327A8A430E
:1029D0003272012272745A0553D40121B27C4046EE
:1029E0008A43B274F27C8A43F27442462631927C66
:1029F000415C0A4305D1417A022081434046F2738B
:102A000041720121494A11701B0607D559464F1ED4
:102A1000B9412200613146480CF004FF454B1B6868
:102A2000464535D0002B28D12021434A93691942CD
:102A3000FCD1146086E54A6194E64A6188E69361B8
:102A400080E54A617AE64A616EE64A6162E64A6179
:102A500056E60122394B1C70394B1A7072E5296811
:102A6000FD2B1ED0FE2B2BD00A0700D46AE52200D6
:102A7000190034480CF0D6FE64E520000CF09AFDF5
:102A800060E50122019930480CF0CCFE2B68A4E7E8
:102A9000002BF2D12021284A93691942FCD11460FD
:102AA00050E5FF231B0219402143284829600CF000
:102AB000B9FE47E52B6834721B0500D579E641E580
:102AC0000133194024022143214829600CF0AAFE59
:102AD00038E503327270C8E6042201991A480CF0F6
:102AE000A1FE3EE70122019917480CF09BFEFCE68F
:102AF0000732019914480CF095FE1FE715480CF0B9
:102B0000A5FD2B6811E772703073B2E61249134EBF
:102B10000868002800D00DE52EE5C046D838002012
:102B20000639002007390020DC6803100F39002027
:102B3000983305106814002000400340023900203B
:102B40000339002004340510D83C0510DC3305108F
:102B5000F03305106C330510088400200A3900207A
:102B60000122014B1A7070470F390020962110B5D1
:102B7000184C0901200009F045FA0221002009F053
:102B80000DF90221012009F009F9E1212000490293
:102B900009F0FCFAC022236B120213400E4A2000F7
:102BA000136008210023012209F04CFB20000021C2
:102BB00009F086FB0949142008F05AFB0121142072
:102BC00008F012FB5023A363626B183B1340044AC6
:102BD000136010BD00400340305003405503001007
:102BE00034500340F0B5DE464E4645465746E0B504
:102BF0000500A3B00190474814000E000CF026FD1C
:102C00002A00454902A80BF021FA02A8FDF752FF5D
:102C1000002C00D07BE0002E40DD6A469288002424
:102C200090463E4AB246934642460092009B18198F
:102C300080B2FDF7B3FB5946020002A80BF006FA7A
:102C4000374B186800283DD102AB1A78002A1ED0F5
:102C50000D2600252027B146324B00215B5E02A9DC
:102C60009846314B002D26D190451ED09D692F42AC
:102C7000FCD11A600D7801310D3D6A4255410A7848
:102C8000EDB2002AEED10223984301281ED0013470
:102C9000E30622D063072AD0A245C7D123B03CBCAB
:102CA00090469946A246AB46F0BD9D692F42FCD1A5
:102CB0004D461D60DAE79D692F42DAD09D692F42AB
:102CC000F9D1D6E7032819D00128E0D102A9174885
:102CD0000CF0A8FD0134E306DCD1019B1449E21895
:102CE00002A80BF0B3F902A8FDF7E4FED4E7202315
:102CF00002AA13801000FDF7DDFECDE702AB1A78C3
:102D0000002AA5D102A909480CF08CFDE2E7FDF7E5
:102D10001FFF80E7AC6A0310C06A0310946A0310B7
:102D200068140020E83B032000400340D84205100F
:102D3000CC6A031010B5162009F060F8D024802367
:102D40002406DB03A36200220121162009F03EF8CD
:102D50000D2009F053F880239B01A362002201217A
:102D60000D2009F033F8012007F080FF636801228D
:102D70005B0239D4204B1A6063685B0B13402DD182
:102D80001E4A1F481360FDF761FE092009F036F85E
:102D9000D024802324069B00A36200220121092065
:102DA00009F014F8072009F029F880230022A36213
:102DB0000121072009F00AF8082009F01FF88023F4
:102DC0005B00A36200220121082008F0FFFF06201B
:102DD00009F014F840236362002010BD074B094836
:102DE0001A60FDF733FED0E70748FDF72FFE0022FB
:102DF000014B1A60F0E7C0469026002068140020BE
:102E0000146B0310006B0310D86A031010B50F2069
:102E100008F0F4FFD024802324061B0263620421FF
:102E20000F2008F0BBFF0E2008F0E8FF8023DB0135
:102E3000636204210E2008F0B1FF072280240C4BAE
:102E400064001A600B4B89320B499C500832995030
:102E500004210A48026851400C220A4008490A60CD
:102E60009C229C500123026893430B6010BDC04616
:102E70002039002000000540800080008C000540C3
:102E80008C100540F0B5264B264CA5441C78264BEB
:102E90001878FF2C2AD0002824D06A460025160076
:102EA00022494B780F78634367431B123F123F025E
:102EB0001B043B438F78013567433F123B431B02A2
:102EC00008C603318542ECDB802100251400184A36
:102ED0004902266853680B42FCD10135166104345F
:102EE0008542F6DB81239B009D44F0BD0028F9D08C
:102EF0006A46002516000D490B784C781B02240405
:102F000023438C78013523431B0208C603318542D5
:102F1000F2DB802114000025054A4902D9E7C046AA
:102F20007C150020FCFDFFFF7D150020887B002024
:102F300000002050F0B5C64600B5514B1B78002B61
:102F400000D077E04F4B420010181C784E4A4F4B90
:102F5000127819784E4BC2541B185C7099704D4B07
:102F60001878002861D04C4B1B78984698425CDA60
:102F700003254446AC460627013C241AC61CA4453A
:102F8000A441B742B6414200414913186442764217
:102F90005B18264262D01C000C4325425ED142469B
:102FA000121A944664460A00A6087400A419A400E4
:102FB0001C195768966815685F601D609E600C3329
:102FC0000C32A342F5D1032362469A4383189445F9
:102FD0002BD05400A418665C5A00D21856540C1911
:102FE00066788A185670A4785E1C947046451CDA80
:102FF000321A5400A418675C7200921957540C19C5
:1030000066788A185670A4780233947098450CDD5F
:103010001A1A50008018445C5A00D3185C540818DF
:103020004278C9184A7083788B70FFF72BFF04BC75
:103030009046F0BD012B00D091E7184B184C1B783F
:10304000134A5900C91863185E789D784300181810
:103050000B5D835412185670957080E743465B00F1
:10306000101843440818CD180B7803704B78437040
:103070008B78033183700330A842F5D1D5E7C04681
:10308000683A012078DA0020E23B0320E03B03208D
:10309000887B0020118400207D150020E33B032065
:1030A0000881002070B5274986B027480EF082FDC0
:1030B000062105001C2008F071FE01230021009369
:1030C0001C2221480EF0DAFD80235B020293EB1CE8
:1030D000EA011B0313431D4A0520134003931C4BB5
:1030E00005931C4B049309F02FFB0CF005F81A49CB
:1030F0000BF0ABFF061C0CF027F884B20020002C6C
:103100000ED020000BF0F8FF011C301C0BF097FFD5
:103110008721C9050BF0ADFF0CF016F8C0B2000214
:10312000240404430294084C02AB2A00002120002E
:103130000EF0FCFD0122236813432360FFF7A2FE7B
:1031400006B070BDF03C051000002050FFFFFF9F4F
:1031500000700020000006700024F44A70B50F28AB
:1031600009D8374B80001B589F46364B1B78802B65
:1031700062D8354A137070BD80210020324B334A2B
:103180001C78490253680B40FCD101301361A04206
:10319000F8DDF0E700222E4B1A70ECE701222C4BF1
:1031A0001A70E8E7274B1A782A4B1A70E3E7254B89
:1031B0001A78294B1A70FFF765FEDCE727480CF0F8
:1031C00031FB234B264819780CF02CFB224B254869
:1031D00019780CF027FB24480CF024FB23480CF052
:1031E00021FB234C234D26008136FF36A3786278DD
:1031F0002178280003340CF015FBB442F6D11E48A8
:103200000CF010FBB7E7802100200F4B0F4A1D7810
:103210001A4B49021C781A4B24021B781B041C43CE
:10322000184B1B781C43240253680B42FCD101301D
:103230001461A842F8DD9EE78022034B1A709AE7DA
:1032400080690310E33B03207D150020000020501F
:10325000683A0120118400207C150020A03B051055
:10326000AC3B0510B83B0510C83B0510D43B05101E
:1032700008810020E03B051030360510E23B0320BA
:1032800078DA0020E03B0320F0B5DE46454657469D
:103290004E46E0B589B0FFF7B9FDFFF703FF02A97D
:1032A0000A00844B8A4631CB31C211CB11C21B8834
:1032B0001380814B1A689846804B91009B46534679
:1032C0007F201E787E4B80251B786D0003407D4853
:1032D0009B00C3580320DC170440E4187A488B187D
:1032E0009B00181805607948A410844663441D604B
:1032F000402E66DC764BB6009B599946002B1BDDB1
:1033000000254F46E317009301945B469B590198B3
:103310005B5D0099994607F097FC43461A684B4657
:103320006C4C1804A446910018438B189B0063440E
:1033300001351860BD42E8DB01239C4602A8E24447
:103340008446153363445345B9D1634B9A46634B66
:103350001B78002B42D153461B78002B23D0604BA7
:10336000FF201A7843461968D2B28B005B18564981
:103370009B0059180001086051B2002900DC90E060
:10338000504992008A5851100904080C01435148D1
:103390001204181801604D49120C8C4663441A60DF
:1033A0000023524613704F4B1B78002BCFD04E4B4F
:1033B00018784E4B1B78072B09D84D4A9B00D358E1
:1033C0009F463923002699469AE74A4B18700023F6
:1033D000444A1370414B1B78002BBCD07F22032141
:1033E000454B1E78364BF6B21B781340354A9B008E
:1033F000D258D3170B409B189B10994643461A6826
:10340000FD3193009B18304A9B009A1811602F4A97
:10341000944663441960402E49DC2D4BB6009F59F9
:10342000002F1CDD4B46DB170093330000244E4673
:1034300099464A465B469B58300000991D5D07F04F
:1034400003FC43461A682B041D4393009B18214A32
:103450009B009446013463441D60BC42E9DB0023B9
:103460001E4A137077E7254B1870B0E7244A4300D3
:1034700094461818214B1B7813541E4B60441B783C
:103480004370204B1B788370A1E7FFF753FD9EE745
:103490001D4B18709BE71B4B187098E7FFF75EFEFB
:1034A00095E70C4A9446002263441A6078E739276E
:1034B0000026B7E7E0690310203900206C140020D3
:1034C00065140020286B031004000540100005401F
:1034D000103105100C000540033900200739002089
:1034E00002390020053900201084002004810020CA
:1034F000C069031078DA002006390020E23B03207F
:1035000008810020E03B0320E33B0320F0B5DE46CA
:10351000454657464E46E0B5C14C8025A544D024CB
:10352000C0482406AD04FDF7F3F8192008F066FC46
:103530006562FA20656107F099FBA561FA2007F042
:1035400095FB0CF053FB6561FA2007F08FFBA5613A
:10355000FA20FFAC07F08AFBF8341B21B2480CF0CC
:1035600061F9FFF703FB1B22B04920000AF06EFD52
:103570002000FDF7E5F8002002F05CFE0122016862
:10358000383012F031FE002803D0A948FDF75EFA6A
:10359000FEE7A84E3000FDF759FA0CAA9446A64B58
:1035A000A64D63441900280014F0A6FC071E00D1A4
:1035B00082E1A348FDF7C4F8012130000CF032F994
:1035C0000023FFAADC321360FFAAD43213608023E9
:1035D000FFAA1B03C83213609A4BFFAAEC32136098
:1035E000994BFFAAD0321360FFAAE0321360FFAA02
:1035F000D8321360954B9846954B9946D026802734
:103600003606BF04C820776107F030FBB761C820D9
:1036100007F02CFB43461B68002B01D000F006FF8F
:103620008C4A8D498D480CF0FDF84B461B68FF2BEA
:103630000EDC8B4EFFAB3700C8331D68083730787F
:10364000013608F0DBFBBE42F9D1FFABC8331D6089
:103650002600844BFFAAF83213602000FDF72AFAF7
:10366000814B07CB07C607CB07C607CB07C61B682E
:1036700020003360FDF71EFA22007C4B83CB83C20F
:1036800083CB83C283CB83C21A68200032601B794C
:103690003371FDF70FFA2200754B83CB83C283CBC6
:1036A00083C283CB83C21A68200032601B793371D6
:1036B000FDF700FA22006F4B83CB83C283CB83C21A
:1036C00083CB83C21A68200032601B793371FDF707
:1036D000F1F92200684B83CB83C283CB83C283CBB7
:1036E00083C21A68200032601B793371FDF7E2F95A
:1036F0002200624B83CB83C283CB83C283CB83C242
:103700001A68200032601B793371FDF7D3F922006B
:103710005B4B83CB83C283CB83C283CB83C21A68C8
:10372000200032601B793371FDF7C4F92200554B3C
:1037300083CB83C283CB83C283CB83C21A6820002E
:1037400032601B793371FDF7B5F922004E4B83CB04
:1037500083C283CB83C283CB83C2200006CB06C641
:10376000FDF7A8F9FFABD4331B68002B00D06FE145
:103770000126FFAAD4321268444BFFA91A609B4667
:10378000434BD4311A600B60424B43481E6099464C
:10379000424B1A70FDF75AF9FFABE8331E60FFABDE
:1037A000FFAAD833E0321B6812683D4920000AF0B6
:1037B0004DFC2000FDF74AF9FFABD033186828F024
:1037C00079FC032801D900F022FE3649364A3748F1
:1037D000531A0CF027F8FFAAEC321668FFABC83377
:1037E0001B683200324920000AF030FC2000FDF74F
:1037F0002DF90CA8D1238446DB0063441800012274
:10380000310012F0D3FDF7230400184200D138E153
:1038100015F0F4FF230002003100264809F0BAF841
:10382000E4E6FFFF90D0030038340510543405104F
:103830007034051084340510E80800009434051035
:103840002C36051028340510005E05106814002081
:103850009426002034360510403605104C360510ED
:103860005C1400200A0A0A0080360510A8360510EC
:10387000D4360510003705102C37051058370510C1
:1038800084370510B0370510DC3705109C38002050
:10389000A038002028340020083805100A390020FC
:1038A0002C38051000000010F45A06106838051076
:1038B000A0380510047003100CA88446AF4B2A00F2
:1038C0006344AF4918000AF0C1FB0CAA9446AB4B05
:1038D00063441800FDF7BAF82900380002F0E2FE50
:1038E000A84AA949060002F0BFFE8022FFABEC33D4
:1038F00018609201A549300002F0C0FEFFABC8334A
:1039000018603A00A249300002F0B8FE3A00A1491E
:10391000300002F0B3FEFFABF033186001229E4985
:10392000300002F0ABFE9D4B3A0018609C4930001D
:1039300002F0A4FEFFABDC3318609A4B9A491A00E0
:103940003000984602F090FEFFABD8331860424634
:103950009649300002F088FEFFABE0331860424623
:103960009349300002F080FEFFABD0331860012293
:103970009049300002F082FE8F4B3A0018608F4968
:103980003000984602F07AFEFFABD43318608C4AC0
:103990008C49300002F068FE02000CA8844677488B
:1039A000FFAD6044CC3528608749012328680AF0C0
:1039B0004DFB0CAA9446714B63441800FDF746F882
:1039C0003A008249300002F059FE814B3A001860FB
:1039D0008049300002F052FE7F4B3A0018807F4948
:1039E000300002F04BFE7E4B7E49186099467E4BBC
:1039F00030009A461A7802F041FE534618707B4B0D
:103A00007B499A461A78300002F038FE5346187007
:103A1000784B79499A461A78300002F02FFE5346C7
:103A20001870764B76499A461A78300002F026FED6
:103A300053463A0018707349300002F01FFE061E0C
:103A400000DDA9E17048FDF701F8FFF773F9D5E54E
:103A50006E4BFFA99B4601235A4613606C4AD43132
:103A600013606C4B0A60994600234A4613606A4A09
:103A70006A481370FCF7EAFF0223FFAAE8321360DA
:103A80008DE680238021FFAAC8325B0112684903BA
:103A900063480BF0C7FEFFABC8331B68002B00DC8C
:103AA000C4E0022380240327FF339A46FFABC833C8
:103AB0001D6864030CA88446D12080225949FFABBD
:103AC000C000F43352016144604413F063FAFFAB69
:103AD000E4331B681F424CD0FFABE4331B68FFAAE2
:103AE0000133E432136053451ED0EFF3108672B6F3
:103AF00080212000490132F03FFD0CA98C46802234
:103B0000484B520163441900200032F00DFD86F34A
:103B10001088454A802394465B01E3186444A5421B
:103B200000DC83E01C00C5E70A200BF043FDEFF347
:103B3000108672B680212000490132F01DFD0CA9CB
:103B40008C468022374B520163441900200032F02A
:103B5000EBFC86F31088344A802394465B01E3181B
:103B60006444A54262DD0022FFA9E4310A601C0022
:103B7000A0E72E200BF01EFDAEE7C0468C0500002E
:103B8000A034051028340510C4340510D0340510B5
:103B9000DC340510E8340510F434051074150020E9
:103BA000FC340510005E05100835051018350510A9
:103BB00024350510343505106814002044350510EF
:103BC0005C350510683505107C35051094350510F9
:103BD000D4380020A035051000390020AC35051080
:103BE00094260020B83505106614002064140020C7
:103BF000C835051058140020DC3505105914002074
:103C0000E8350510F43505101C3605109C380020E9
:103C1000A0380020283400200A3900201C38051064
:103C2000286D0310E80800000010F0FF0A200BF0D8
:103C3000C1FC0023D04AD14D13702B68012B01D158
:103C400000F008FC4B461B68002B00D073E35B467A
:103C50001B68002B00D0A9E3C74B1B78002B03D0B7
:103C60000022C74B9A725A73FFABE8331B68022BD2
:103C700000D16DE3C34B0121186802F089FAC248F4
:103C800006F056FCC1480BF0E1FCC14F380025F0AE
:103C90007FFEFFABF0331B68002B00D02AE3BD4B47
:103CA000BD487B63BD4BBB63BD4BBB62BD4BFB6281
:103CB000BD4B3B65FCF7FEFEBC48FCF7FBFEBC4879
:103CC000FCF7F8FEAF4B9A464346C846D9469B469A
:103CD0005E46CB46B74B1B68002B00D022E3B64BA9
:103CE000FFAA1B68D03213601368002B15D0D025B3
:103CF00080242D066B68A400234200D17DE3D024EC
:103D0000240663681B0600D464E3D02480232406C1
:103D100062685B001A4200D1DFE228239946330033
:103D20004E46C1469846322432213800013C25F0E7
:103D300051FD002CF8D153461868002801D002F03C
:103D400065F95B461B68002B7CD18B4B1B78002BE5
:103D500038D1013E002EE6D14346C846B1461E008A
:103D60001B68012B00D169E2944B1B78002BB1D06A
:103D7000934BD9461B78B346002B00D1D3E32223C3
:103D80002322FB5CBA5C1343A2D15A46CB46C14600
:103D900090468A4A137095E70CAFBC4602008948EA
:103DA0008949012360440AF051F90CAA9446854BD5
:103DB00063441800FCF74AFEFA2080007043FCF7C9
:103DC000A7FC3FE643461B68002B00D0C2E07F4BB8
:103DD0001A687F4B1B689A4205D04B461B6801242A
:103DE000012B00D1DDE1664A7A4B50799D69C143D0
:103DF000537BC9B2AD0600D50AE102252C43002B46
:103E000002D0022C00D091E36023034353710B4096
:103E10000121194200D0E9E00221194299D0D37A58
:103E2000194296D11078014293D002201843DB0743
:103E3000DB171940137B0231D0725170002B88D1EF
:103E4000107386E743461B68002B58D15F4B1A68F6
:103E50005F4B1B689A4200D1EBE04B461B68012088
:103E6000012B00D181E15B4B9A69FFABD4331B6816
:103E70001B68920600D5D6E002221043FFAAD0327A
:103E80001060002B51D1544D2B7A5A0706D40422CE
:103E900013432B726B789B0700D5DAE06B7F5A07D0
:103EA00000D552E7042213436B77AB7D9B0700D408
:103EB0004BE72721012301206A5C934302436A54A4
:103EC000464AFFA91268D0310A600A68120600D477
:103ED000BBE0002B00D138E70122012140480BF064
:103EE000A1FCEB7B002B00D02FE701220221243321
:103EF000EA546B7A0B436B72304B1A7025E7394BDF
:103F00001A68394B1B689A4200D194E00323FFAA38
:103F1000D03213604B461B68012B00D12CE1FFAB64
:103F2000D4331B681B68002BADD00123FFAAD0320D
:103F300012681340284D002B06D0AB7BFFAAD83265
:103F40001360002B00D1A4E0FFABD0331B689B07AC
:103F5000A4D599E7234B1A68234B1B689A4266D075
:103F60004B461B680324012B00D111E1044A507910
:103F7000537BC143C9B242E70D39002074150020BC
:103F8000D8380020088400208932001070390510CC
:103F9000483300208D1F00109C390510F5240010B7
:103FA000B1090010690500109D070010C8390510FF
:103FB000F4390510347D0020902600200F390020B0
:103FC000123900208C05000004360510043300204F
:103FD0000C3300200040034070380020D43800200B
:103FE000D03205100833002010330020D07A01426F
:103FF00000D011E71478214200D10DE708430421D5
:104000005170117BD072002900D005E7107303E7CF
:10401000002B00D100E70023002C00D1FCE6012397
:1040200003435371F3E6002B0AD1CC4D36E702244B
:104030009CE7002017E70223FFAAD03213606EE747
:10404000FFAAD0320300106074E7002B00D048E7CD
:104050007BE601230121AA7C93430A43AA74C04A48
:104060001268120600D4A3E0002B00D116E701224B
:104070000121BC480BF0D6FBEB7B002B00D00DE7F9
:10408000022101226B7AEA730B436B72B64B1A70F2
:1040900004E743461968002900D08DE0B34BB448CB
:1040A0009C4600681B68984200D1DDE0B148C05CC6
:1040B00001331060FA208000834200D1A8E06246FC
:1040C0001360A74BFFAA1B68DC32136013681B0642
:1040D00000D58BE0EB78DB0700D492E0A04BFFAA81
:1040E0001B68DC32A97B136013688022134002290D
:1040F00000D190E018206A780240002B00D0C6E082
:10410000FFA8D83000684B1C6918C8720120297AB2
:10411000DBB20143AB732972102A00D1A8E0182A40
:1041200000D1A5E0082A00D00EE7012B00D00BE754
:1041300002210A00AB7C9A430B43AB74884B1B688B
:104140001B0678D5002A00D1FEE686480BF06AFBF4
:10415000EB7B002B00D0F7E60122697A02330B4398
:104160006B72814BEA731A70EEE65346186801F0E1
:104170004BFF4342584176E65346186801F044FF2E
:104180004342584102231843FFABD0331860C6E6C0
:104190005346186801F038FF0223444244411C434F
:1041A000E4E65346186801F02FFF444244411AE602
:1041B000002B00D060E771E66F4A70491368096808
:1041C00099424DD06E49FFA8C95CD8300160FA21F0
:1041D000013389008B4218D01360614BFFAA1B6822
:1041E000DC32136013681B0600D473E7FFABD833CF
:1041F0001A68002163480BF015FBEB78DB0700D54C
:104200006CE761480BF022FA9EE600231360E4E7B6
:104210006346196055E7002B41D12022FFABD8330C
:104220001B6804216B736B7A134304226B72AB7CA3
:104230009A430B43AB74002A8AD185E600200BF029
:10424000FDFAC0B2FF2800D18EE54C4A4C491368F4
:10425000C854FA21013389008B4260D0136083E592
:104260004A480BF0DFFA2CE749480BF0DBFA28E765
:1042700002220221AB7C9A430B43AB74384B1B6880
:104280001B06D8D5002A00D15EE602215DE7414831
:104290000BF0C8FA18236A78A97B1A4030E73E4829
:1042A0000BF0D4F920222E4B04201968FFABD83331
:1042B0001B686B736B7A134304226B72AB7C9A435B
:1042C0000343AB7480231942B5D0002A00D13BE6EA
:1042D000042124480BF0A6FA3AE72200516819425B
:1042E000FCD04025642006F0C1FC6561FDF766FC4A
:1042F000A56112E50CA88446FFABF0331B68274983
:10430000BB831A00264B6344180009F09FFE0CAAD9
:104310009446234B63441800FCF798FBBFE44B46DC
:10432000136021E500201F4B9D443CBC90469946FC
:10433000A246AB46F0BD01F02FFF1B4B1860084BA7
:104340001B685B0200D482E4012101F067FF7EE478
:104350000123FFAAD4321268136090E47038002061
:10436000D4380020D03205100F3900200C33002043
:1043700004330020342B00201033002008330020A9
:104380001C2F0020883A05109C3A05109C3205101D
:1043900084320510B83A0510AC3A0510843905107E
:1043A0008C0500001C190000088400209623834C13
:1043B0005B00238100232000A3720721FCF760F833
:1043C0002C23200063772B3BE38315300721FCF778
:1043D00057F841E47A48FCF76DFB7A48FCF76AFB32
:1043E0007948FCF767FBFCF787F8380025F0D0FA2E
:1043F000802362681342FCD087E4002280211000F1
:104400004902FEF7EFFB6B682342FCD077E4FFAB79
:10441000FFAAD833D0321B6812686C49200009F01B
:1044200015FE2000FCF712FBFFF7CFF96848FCF7F8
:104430000DFBFFABC8331D6802E0642006F016FCDC
:1044400000200CF0E3FD0028F7D0FFABC8331D605F
:10445000FFF7E6F85F4800F04DFF5F4F3860002837
:1044600001D1FFF7EFFBFFABDC331B685B4C002B8C
:104470006CD05B4EFFABE03303221968300011F0C3
:1044800095FF00287ED1FFAADC321268FFABBC3357
:104490001A60FFAAD8329A4696AB13609822180089
:1044A000920031000AF01CFF210096220831920090
:1044B00068460AF015FF226863680021386800F03A
:1044C0003DFF002835D0FFABD033186827F0F2FD50
:1044D000042801D8FFF7B6FB424EFFABD033196872
:1044E0000322300011F062FF5346FFAADC3212684B
:1044F00031001A609822FFABD833186892000AF096
:10450000EFFE210096220831920068460AF0E8FE8C
:104510000CCC0121386800F011FF002843D00023A3
:104520002B60FFF78FFBFCF7B1F928E40123184358
:104530006AE4012338682B6000F04CFA2A4B1B68B0
:104540009B04C0D529480BF06DF9BCE7FFABD8330D
:1045500003221968200011F029FF002889D0FFAB41
:10456000D833196822480BF05DF9FFABDC331B68C8
:104570002B601D4B1B689B0400D47AE71D480BF091
:1045800051F976E7FFABE03319681B480BF04AF9A5
:1045900000232B60144B1B689B0400D473E717485F
:1045A0000BF040F96FE7386800F014FAFFABD03336
:1045B000196813480BF036F9FFF744FB70380020F8
:1045C000203A0510443A0510643A05104C3805109D
:1045D00060360510D4380510C4DA00201888002091
:1045E00028390020407D0020D43800204C390510A7
:1045F000D8380510FC380510183905103839051061
:104600005C390510F8B5027B0F231500194E9D4348
:10461000057304006DB2805952061CD502126072F7
:10462000A2720214001618402843E2722073124B43
:10463000657BE3588421237277232B40412500209A
:1046400022692B43C9006050637350500221137DCF
:104650000B431375F8BD677E390009F0ABFD0131DE
:104660006172E18A794309F0A5FD28432073A151C5
:104670006181DCE7E8080000F408000070B5037A07
:104680000400C5685A062CD52A7D120710D5C079BA
:10469000A27900041202104362791B061043F02233
:1046A0001205134018438F231B01EB58C01830E04C
:1046B00029686A1AD210D3009B18DB009B1A980055
:1046C000C01A03021B1A5B009B1ADB009B18D8015F
:1046D000C31A5B019A1A144B1448C958144B0BF0B7
:1046E000A1F86179002915D0E279A0796B7E1202D8
:1046F00010438B4215D3247A2A7E944211D2ED8A3C
:1047000085420ED950430F22224080185843013071
:10471000401870BD07480AF099FF01230121637119
:10472000E2E701204042F4E7F4110000983E051052
:10473000803E0510AC3E0510F0B5C646842300B59A
:10474000DB00C35882B004000D00022B3DD14B4F5B
:104750004B4AC3598618B34256D01A78217D90B27D
:10476000C9060BD5454A0133A350A0809E420DD007
:10477000012D46D002B004BC9046F0BD022D5CD0A5
:104780003E4A0233A350A0809E42F1D102213D4A0D
:10479000A358013BA350227D0A432275002BE7D189
:1047A0008422D200A3509046627B266994467722E9
:1047B00067463A404027BC4667463A4362734246E2
:1047C000B350337D19433175D2E70168421AD210D4
:1047D000D3009B18DB009B1A9800C01A03021B1A17
:1047E0005B009B1ADB009B18D801C31A5B019A1A65
:1047F000254B2648C958264B0BF014F8A088012DEC
:10480000B8D1FF231840B5E7010080231A31C15108
:104810009B0085209846C00001AB4246201812F04C
:10482000B9FB019B43450CD1802189008C46194A74
:10483000A3586344A350E3598FE75878000210430C
:104840009EE7154826F048FC1022637B93431A002C
:10485000012313436373019B013306D00123A3712A
:104860002000FFF7CFFE0D4884E725F0F3F803683A
:10487000052BF3D13B33A371F2E7C0461C040000C3
:104880001A020000F4080000F4110000983E051020
:10489000D03D0510E8080000C03D0510FFFF0000F6
:1048A000842370B5DB00C35882B004000D00032BD5
:1048B0001BD1037DDB0601D5FF231D403D4BE25894
:1048C000511CE1501570227DA580D20605D4E25816
:1048D0002D0A511CE1501570A580364A364BA1585F
:1048E000E31899421CD002B070BD0168421AD21080
:1048F000D3009B18DB009B1A9800C01A03021B1AF6
:104900005B009B1ADB009B18D801C31A5B019A1A43
:104910002A4B2B48C9582B4B0AF084FFA580E2E7AD
:104920002100802585201A31AD00C000A15001ABC7
:104930002A00201812F0BEFC0199A9421FD1802143
:1049400089008C460221204AA3586344A3501F4A81
:10495000A358013BA350227D0A432275002BC2D1EC
:1049600084257722ED006351667B20693240502612
:10497000324362734351037D19430175B3E7144811
:104980000AF050FF1022637B93431A000123134364
:104990006373019B013305D00123A3712000FFF74E
:1049A00031FEA0E725F056F80368052BF4D13B3320
:1049B000A371F3E71C0400001A020000F4110000C8
:1049C000983E0510E03D0510E8080000F4080000DE
:1049D000F03D05100122264B017DC35C10B513404C
:1049E0000A4232D08021447B494221434173002B4B
:1049F0002ED082710222FF3282608422002301695C
:104A0000D20003738B50102240334373037D9343D2
:104A100003750122174B0221C3189A7000221A72E3
:104A20009023FF311B01C150134BC1588423DB007D
:104A3000CA501021114B4032C2540D4A835C8B4343
:104A4000835400220E4BC25010BD002BE1D1F8E779
:104A500082710222FF32826084220169D2000373D4
:104A60008B50402310224373037D93430375E8E783
:104A70000C090000FC0800000809000005090000FE
:104A8000F0110000344B70B5C458E3001A195201FC
:104A9000121BD2008518082943D8304A8900525881
:104AA000974602251A195201121BD2008218117D55
:104AB000A94311751B195B011B1BDB00C318587B35
:104AC00070BD01212800FFF737FEC0B2F8E71B19BF
:104AD0005B011B1BDB00C3189879F1E71B195B0115
:104AE0001B1BDB00C318187AEAE71B195B011B1BB1
:104AF000DB00C318587AE3E71B195B011B1BDB00C3
:104B0000C318987ADCE71B195B011B1BDB00C31879
:104B1000D87AD5E71B195B011B1BDB00C318187B78
:104B2000CEE711580E486D1AED10EB005B19DB0053
:104B30005B1B9A00D21A13029B1A5B005B1BDB0003
:104B40005B19DA01D21A074B5201C958521B064BA6
:104B50000AF068FEFF20B3E7F01100004C3D05109D
:104B6000983E0510F4110000143E0510F0B55746AC
:104B70004E46DE464546E0B5DC4B83B00700C658DE
:104B8000082900D167E1F400A5196D01AD1BED0006
:104B9000431998465B7B7F2B00D918E143461B7D68
:104BA000DB0700D477E007296ED8D14B89005B582A
:104BB0009F46A3195B019B1BDB00994681444B4632
:104BC0009A7341225B7B043593431A0080235B4236
:104BD00013434A465373434600229A714B461B695E
:104BE00045199A468423DB009B46012053465946CB
:104BF00058504B469B7B412B00D99FE0402B00D364
:104C000089E2202B00D21BE2212B00D9C7E05346BA
:104C10001B7D5B0700D5CCE02800FFF72FFD524637
:104C2000B44BD0504B465A7B7F231340582213433A
:104C30004A4653734246127A9C46002A01D10132F9
:104C4000FF325346AC495A50431C00D1C4E24202E1
:104C50008520C000D317504412F0AAFE002800D0CF
:104C6000B3E284220221EB68D2009950A34A99183A
:104C7000A34A99507F22697A0A4008210A430221F7
:104C80006A721A7D0A431A7503B03CBC9046994675
:104C9000A246AB46F0BD06290DD1D3069349DB0FE2
:104CA0007B505F21DE00F6187601F61AF600BF1978
:104CB0000A403A73E8E7434629585A1AD210D300FB
:104CC0009B18DB009B1A9800C01A03021B1A5B009A
:104CD0009B1ADB009B18D801C31A5B019A1A894BF7
:104CE0008948C958894B0AF09DFDCDE791B24046ED
:104CF000FFF7D6FDC8E7A4196401A61BF6008719C3
:104D0000FA71C1E7A4196401A61BF60087193A726B
:104D1000BAE7A4196401A61BF60087197A72B3E7F3
:104D2000A4196401A61BF6008719BA72ACE7A4198E
:104D30006401A61BF6008719FA72A5E7912B00D132
:104D40009EE15FD9EC2B00D1AEE0EF2B00D077E1F4
:104D50004346DB79032B00D124E1812B00D14FE2C4
:104D6000012B00D145E24B4601225B7B13434A46AF
:104D70005373434604229B7913434246937177232E
:104D8000697AEA680B4040210B436B72842300214F
:104D9000DB00D1500221137D0B43137574E719001A
:104DA0003039012900D94BE153461B7D5B0700D404
:104DB000C9E04B464046597B1023837167330B4053
:104DC00041210B436B72594653465A505CE74346A8
:104DD00029585A1AD210D3009B18DB009B1A98004E
:104DE000C01A03021B1A5B009B1ADB009B18D80138
:104DF000C31A5B019A1A434B4348C958444B0AF003
:104E000011FD41E7902B00D01AE1534601201B68A9
:104E1000197D084200D087E001223E49595C0A42D0
:104E200015D03D495818002182700172902202204D
:104E30001201FF309850394A39489C5877221D5C3E
:104E40002A4040252A431A548422D200A15000212E
:104E5000264A995018E70421F3009B195B019E1B19
:104E6000F6008619F37B5340194219D0114000D047
:104E7000A0E0772340259846407B3C691840842376
:104E8000284378734046DB00E150244C99463E5954
:104E9000234C3B5D184003002B433B554B46F150E0
:104EA000204BFA73FA54EFE65446802213491A3421
:104EB0005144920020000AF013FA02225946EB688E
:104EC0005A500E4A0E499A185A507F22687A024068
:104ED0000820024302206A721A7D02431A75534663
:104EE00052465C500121044BD150CDE6F011000038
:104EF000703D0510E8080000F40800001A020000E8
:104F00001C040000F4110000983E0510403E0510FE
:104F1000243E05100C090000FC08000008090000F0
:104F2000050900000709000002219871FF31587B34
:104F300099608A39014040200143584659731969E4
:104F40001A730A5068E72800FFF798FB5246DC4BBB
:104F5000D0504B465A7B08231A434B465A7343465C
:104F60001B7A9446002B01D10133FF335246D549B9
:104F70005350431C00D112E142028520C000D317D8
:104F8000504412F015FD002800D001E184220321D5
:104F9000EB68D20099501900CB4A1A319950697ABE
:104FA0003F2269E643460F221B7A93431F2B00D80A
:104FB000E5E6D8E60123017D0B420FD00221837183
:104FC000FF3100238160842103730069C9004350CD
:104FD000102140337B733B7D8B433B750121BB4BE1
:104FE000F85C014215D0BA480224381881700021BB
:104FF00001729020FF3400013C50B6483C58842098
:10500000C00021504020B4497854F95C30388143C5
:10501000F9540021B14BF9503B7DDB0704D58023C7
:10502000797B5B420B437B73A84BFB5CDB0700D4B3
:1050300036E78023A8495B42785C03437B542FE723
:105040000F229343102B00D1E1E0702B00D117E128
:1050500004234146A4196401A61BF600BF197A7BFC
:105060008B7173331340412213436B728423514677
:105070000022DB00CA5002220B7D13430B7503E6AE
:1050800043461A7A53465B7E9A4209D14B461A7BB5
:105090000F2313405246127E0133934200D1E8E0C1
:1050A0000122A4196401A61BF600BF197B7B042111
:1050B00013437B7343469A790F200A439A715346F0
:1050C00052461B7D0B431375514643463C7B1B7A6E
:1050D00020400130127E497E009081480AF0A2FBF8
:1050E00053461968581AC010C3001B18DB001B1A5E
:1050F0009A00D21A13029B1A5B001B1ADB001B18C2
:10510000DA01D21A774B5201121AC9587648774BF6
:105110000AF088FB33E653461B7D5B0700D548E663
:105120002800FFF7ABFA5246654BD05043461A7A37
:10513000002A01D10132FF325146624BCA50431C52
:105140000AD08218013A52028520C000D317504479
:1051500012F02EFC002810D01021A3195B019B1B1C
:10516000DB00FB185A7B8A4301210A435A734346EA
:1051700010229B791343424693717723A41964014B
:10518000A61BF600BF19797BEA680B405021FBE5AE
:10519000A4196401A61BF600BF197B7B9C464346FD
:1051A000102142469B790B439371672362461A4054
:1051B0004123E9681A436A7284230022DB00CA5043
:1051C00002220B7D13430B755EE5A4196401A61B37
:1051D000F600BF197B7B9C46434610219A790A430F
:1051E0009A7167226346134041221343E9686B7248
:1051F000E2E7534610221B7D134352461375BEE56A
:10520000534610221B7D934352461375B7E5524611
:10521000127D520711D54146A2195201921BD200AC
:10522000BA18527B8B7167331340412213436B7260
:10523000842300225146DB00CA505246204BD358EB
:10524000013304D02800FFF719FA002895D0102167
:10525000A3195B019B1BDB00FB185A7B8A430121CE
:105260000A435A73434604229B791343424693717F
:1052700083E7534604221B7D1A4200D17FE5C2E733
:1052800053461B7D5B0710D510224146184B7343D4
:10529000FB185B7B8A7167321A40412313436B72A0
:1052A000842300225146DB00CA502800FFF7E6F9AC
:1052B0005246034BD050431C00D14DE7420243E716
:1052C000E8080000F40800001C0400000C090000BD
:1052D000FC0800000809000005090000F0110000AA
:1052E0004C3E0510F4110000983E05106C3E051070
:1052F000F8080000902170B549010500012009F06F
:1053000091FF041E0DD0280026F042FD084BE0500E
:10531000002808D0074B084A2460E450E3182461B1
:10532000A350200070BD200009F0BCFF0024F8E766
:10533000F4110000F80800000809000082B0F0B580
:105340004F464646DE46CD00C0B56F187F017F1A36
:10535000FF008046B94682B0C1440B934B460A9287
:105360001B7D0C00DB0700D5C0E085209822C00023
:105370009200A2A9484409F0B3FFD12098223E0030
:10538000C00092000AA9484409F0AAFFFFAA754B81
:10539000EC3212684B441A60734B1A36FB184344C4
:1053A00046449B46002A6CD18F23FFAAEC32126838
:1053B0001B014B441A60D123DB009C4680226B46C4
:1053C0006744474492003100380011F0E3FD802229
:1053D00001AB92005946380011F0DCFD8022009BA1
:1053E0009200934260D1019F9F425DD1300008221C
:1053F0005E4931F081F82D196D012C1B0600E40087
:10540000002800D08FE0852398224444DB00E01878
:105410009200A2A909F064FFD1239822DB00E018D2
:1054200092000AA909F05CFF2200012110321379D1
:105430000B43137188239B00E3181B8823764C4B86
:10544000E3181B88637687239B00E1180B88097893
:105450001B0A1B020B43E3829F239B009C46644470
:1054600023883B421BD0082113790B431371300072
:1054700002B01CBC90469946A346F0BC08BC02B0E2
:1054800018478F2302221B014B441A608523DB003F
:105490009C46FF32674447446B46FF3293E708213E
:1054A00013798B431371E2E743462D196D012C1BD1
:1054B000E400E1584B4601265A1AD210D3009B183B
:1054C000DB009B1A9800C01A03021B1A5B009B1A90
:1054D000DB009B18D801C31A5B019A1A254B26489A
:1054E000C958264B0AF09EF97642C0E74B46012682
:1054F000395876425A1AD210D3009B18DB009B1AF7
:105500009800C01A03021B1A5B009B1ADB009B1851
:10551000D801C31A5B019A1A164B1748C958184B81
:105520000AF080F9A3E74346E1584B4601265A1A90
:10553000D210D3009B18DB009B1A9800C01A0302FC
:105540001B1A5B009B1ADB009B18D801C31A5B0176
:105550009A1A084B0848C9580A4B0AF063F9764270
:1055600085E7C046EC0800001A0200000C3E05105A
:1055700026020000F4110000983E0510A03D051021
:10558000903D0510B43D051010B52A4C82B023782B
:10559000002B13D006281CD0021F012A04D9264B49
:1055A0008000C05802B010BD0629F8D0FD2B30D0C5
:1055B000DD2BF4D104283AD02048F3E70628EBD1BC
:1055C0001F4C204B20491A68200008F03FFD2000A6
:1055D000E8E71E4B1888421C1A80FCF7BDFB2378B5
:1055E000002BEDD0174B40B21B68154C002814DB84
:1055F000012807DD0090164A1021200008F03AFD2E
:105600002000CFE71A001049200008F01FFD2000FD
:10561000C8E7042809D00F48C4E700900E4A1021BB
:10562000200008F027FD2000BCE70C48BAE70C4832
:10563000B8E7C0461539002068400510400D061037
:10564000C43800203034002060400510FE380020AF
:1056500058400510C0080610504005107C08061080
:10566000FC0C061010B582B0062813D0031F012BC6
:1056700004D91D4B8000C05802B010BD0629F8D0D7
:105680001A4B1B78FD2B1FD0DD2BF2D1042829D01B
:105690001748F1E71549174B09781B68164C002984
:1056A0000BD0002A14DB012A07DD00921021134AD7
:1056B000200008F0DFFC2000DEE71A00104920007F
:1056C00008F0C4FC2000D7E7042809D00D48D3E730
:1056D000009210210C4A200008F0CCFC2000CBE7FF
:1056E0000A48C9E70A48C7E768400510153900208D
:1056F000400D061030340020C438002058400510FA
:1057000060400510C0080610504005107C080610C7
:10571000FC0C061010B5294C82B02378002B11D058
:1057200006281ED0021F012A04D9254B8000C0582C
:1057300002B010BDFD2B10D0DD2BF6D104283AD0DD
:105740002048F5E70628F0D11F4C204B20491A6865
:10575000200008F07BFC2000EAE7042821D01D4847
:10576000E6E71D4B1888421C1A80FCF7F5FA2378EF
:10577000002BE9D0154B40B21B68134C002812DBFC
:10578000012807DD0090154A1021200008F072FC66
:105790002000CDE71A000E49200008F057FC200039
:1057A000C6E70F48C4E700900E4A1021200008F019
:1057B00061FC2000BCE70C48BAE7C0461539002060
:1057C00068400510400D0610C43800203034002019
:1057D00060400510C0080610FE3800205840051033
:1057E0007C08061050400510FC0C0610F0B557461A
:1057F0004E46DE464546C64BE0B59A460026524622
:10580000814606708B4608000724C24BC24FC34D29
:1058100083B013603E70431C2B80FCF79DFA22007E
:10582000C308DBB21A409046DD285BD030D876281A
:105830005ED0CB2836D128883A78431C9BB2002A08
:1058400003D04246062A00D1C5E02B80FCF784FA3B
:1058500007231D00C40805401C403F2800D894E0E1
:105860008009AF4AC3B29B009F5800213200280034
:10587000FFF7F8FE230000903A00AA49484608F0D6
:10588000E5FB03B03CBC90469946A246AB46F0BD52
:10589000ED2833D0FD2805D15346A34A38701A604D
:1058A0002888B8E70121072442461940C023044054
:1058B00056080340402B00D17DE00AD9802B56D0FA
:1058C000C02BDED1072C00D93BE2984BA4001B591A
:1058D0009F46002BD5D1072C00D93BE2944BA40066
:1058E0001B599F465346934A38701A60288892E79E
:1058F00005229149484609F0F3FCC2E700232888B5
:105900003B70431C2B80FCF727FA2300C208D2B25D
:10591000134098465E080121C02304401140034013
:10592000402B41D009D9802B0FD0C02BC2D10922E6
:105930008249484609F0D4FCA3E7002BBAD10922DA
:105940007E49484609F0CCFC9BE74307EFD47C4BEB
:10595000A400E0587B4B5B5C920700D510E27A49CB
:10596000009102007949484608F070FB89E74346F8
:105970009A00774B2000D558FFF7CCFE2A00030091
:105980007449484608F062FB7BE7734AA400A458B8
:10599000002132002800FFF765FE220003006F4956
:1059A000484608F053FB6CE7072C00D9BDE16C4B6F
:1059B000A4001B599F4621004046FFF7E5FD4146E4
:1059C00005002000FFF7E0FD2A0003006549484676
:1059D00008F03CFB55E72B80FCF7BEF946B228885F
:1059E000431C9BB231E7434628889A00584BD45851
:1059F000431C2B80FCF7B0F9220003005A494846AB
:105A000008F024FB3DE7002900D028E23B78002B7A
:105A100002D0022E00D163E2032E00D156E2534B96
:105A2000B600F2585249484608F010FB29E74346B1
:105A300028889A004F4BD458431C2B80FCF78CF9D4
:105A400006002888431C2B80FCF786F903023343A9
:105A50009BB222004849484608F0F8FA11E743464D
:105A600028889A00434BD458431C2B80FCF774F9C8
:105A700006002888431C2B80FCF76EF90302334391
:105A80009BB222003D49484608F0E0FAF9E60029B9
:105A900000D0AEE13B78002B02D0022E00D11CE2F8
:105AA000032E00D114E2314BB600F2583449484677
:105AB00008F0CCFAE5E64346002B00D1BCE19A00A1
:105AC000304BD4584346032B00D980E12888431C2F
:105AD0002B80FCF741F921000200484608F0B6FA95
